:020000040800F2
:100000001820002085060008A1060008A5060008A3
:10001000A9060008AD060008B106000800000000AF
:10002000000000000000000000000000B50600080D
:10003000B906000800000000BD060008C10600085F
:10004000C5060008C9060008CD060008D10600084C
:10005000D5060008D9060008DD060008E1060008FC
:10006000E5060008E9060008ED060008F1060008AC
:10007000F5060008F9060008FD060008010700085B
:1000800005070008090700080D0700081107000808
:1000900015070008190700081D07000821070008B8
:1000A00025070008290700082D0700083107000868
:1000B00035070008390700083D0700084107000818
:1000C00045070008490700084D07000851070008C8
:1000D00055070008590700085D0700086107000878
:1000E00065070008690700086D0700087107000828
:1000F00075070008790700087D07000881070008D8
:1001000085070008890700088D0700089107000887
:1001100095070008990700089D070008A107000837
:10012000A5070008A9070008AD070008B1070008E7
:10013000B5070008B9070008BD070008C107000897
:10014000C5070008C9070008CD070008D107000847
:10015000D5070008D9070008DD070008E1070008F7
:10016000E5070008E9070008ED070008F1070008A7
:10017000F5070008F9070008FD0700080108000856
:10018000050800080908000880B53C48016851F4DA
:10019000700101603A49086850F0010008600020D1
:1001A000384A10600A68384802400A603748384ABE
:1001B0001060086830F4802008600020354908602D
:1001C00000F005F85FF000603349086001BD82B0BF
:1001D00000200190002000902949086850F48030E8
:1001E0000860086810F4003000900198401C0190ED
:1001F0000098002803D10198B0F5A06FF1D10868EC
:10020000800302D50120009001E0002000900098BA
:1002100001282FD12148026852F080520260204804
:10022000026852F480420260164802680260026866
:1002300052F400420260026852F4A0520260194A6D
:10024000134B1A600A6852F080720A600A689201C1
:10025000FCD540F20561144A1160016889088900E3
:100260000160016851F002010160016811F00C01A8
:100270000829FAD102B070470000000088ED00E0C4
:100280000038024008380240FFFFF6FE103000241C
:10029000043802400C38024008ED00E040380240CB
:1002A0000070004008544004003C024038B588B05B
:1002B00004000D00002D3BD1002C39D172E03C48E8
:1002C000016831F00401016005984FF4FA51B0FB68
:1002D000F1F14FF4FA7041433648016015E004A88B
:1002E00000F06CF8059831498842E8D2304801683E
:1002F00051F00401016005984FF47A71B0FBF1F1FF
:100300004FF4FA7041432B48016000202A490860ED
:100310002748016851F0010101600168C903FCD55B
:100320000168490849000160B4F5FA7475F10005E7
:1003300040F2F51000218D4203D301D8844200D34E
:10034000CDE7684600F03AF80198184988420DD286
:100350001748016851F00401016001984FF47A7167
:10036000B0FBF1F06043134908600CE010480168ED
:1003700031F00401016001984FF4FA51B0FBF1F043
:1003800060430C49086000200B4908600848016878
:1003900051F0010101600168C903FCD501684908F9
:1003A0004900016009B030BD0000000000127A0071
:1003B00010E000E014E000E018E000E010B40021DC
:1003C00000210021022100210221DFF8C420116850
:1003D00011F00C01002904D0042906D0082908D006
:1003E0002BE0DFF8B410016029E0DFF8B010016005
:1003F00025E0DFF8A0402168C1F38051236813F0A5
:100400003F03002908D0DFF89410B1FBF3F3216813
:10041000C1F388114B4307E0DFF87C10B1FBF3F325
:100420002168C1F388114B432168C1F30141491C84
:100430004900B3FBF1F1016001E017490160116867
:1004400011F0F0010909164B595C0468CC40446076
:10045000116811F4E051890A595C4468CC40846009
:10046000116811F46041490B595C4268CA40C2608E
:1004700010BC7047C9B2002904D00A490A68104369
:10048000086004E007490A6832EA00000860704723
:1004900008380240043802400024F40000127A00B8
:1004A0000000002030380240F0B400220022002278
:1004B000002349E0012414FA03F20D681540954227
:1004C00041D1032502681E00F6B2760015FA06F641
:1004D000B243026006680F791A00D2B25200974008
:1004E0003E4306600A79012A02D00A79022A1AD10B
:1004F00082681E00F6B2760015FA06F6B2438260F4
:1005000086684F791A00D2B2520097403E43866007
:1005100042689C4032EA0404446042688C799C4002
:10052000A4B222434260C4681A00D2B2520095407D
:1005300034EA0505C560C468CD791A00D2B252000C
:1005400095402C43C4605B1C102BB3D3F0BC7047A8
:10055000426989B251404161704730B40EE002688F
:10056000436802440830DC0744BFA9F10104E318E2
:1005700052F8045B43F8045B091FF9D150F8041BDF
:100580000029ECD130BC7047E0B501210120FFF714
:1005900071FF0120009001208DF8040000208DF8EB
:1005A000050000208DF8060069460A48FFF77CFF29
:1005B00007BD80B5FFF7E8FF07480168491C0160E7
:1005C00001210448FFF7C4FF64200021FFF76EFEFD
:1005D000F2E70000000002401000002010B50749BB
:1005E00079441831064C7C44163404E00A68081D2E
:1005F000114488470146A142F8D110BD2C000000EB
:100600003C0000004EF68851CEF20001086840F42C
:1006100070000860BFF34F8FBFF36F8F4FF0007013
:10062000E1EE100A7047000033FFFFFF14000000E6
:10063000DC010000000000200000000000F00DF8C8
:10064000002801D0FFF7CAFFAFF300800020AFF30E
:100650000080FFF7AEFF00F002F80120704700F0C5
:1006600001B800000746384600F002F8FBE700003A
:1006700080B5AFF30080024A11001820ABBEFBE743
:100680002600020001488047014800478901000810
:1006900095060008AFF30080FFF7B4FFFFF7CEFF29
:1006A000FFF7FEBFFFF7FEBFFFF7FEBFFFF7FEBF7E
:1006B000FFF7FEBFFFF7FEBFFFF7FEBFFFF7FEBF6E
:1006C000FFF7FEBFFFF7FEBFFFF7FEBFFFF7FEBF5E
:1006D000FFF7FEBFFFF7FEBFFFF7FEBFFFF7FEBF4E
:1006E000FFF7FEBFFFF7FEBFFFF7FEBFFFF7FEBF3E
:1006F000FFF7FEBFFFF7FEBFFFF7FEBFFFF7FEBF2E
:10070000FFF7FEBFFFF7FEBFFFF7FEBFFFF7FEBF1D
:10071000FFF7FEBFFFF7FEBFFFF7FEBFFFF7FEBF0D
:10072000FFF7FEBFFFF7FEBFFFF7FEBFFFF7FEBFFD
:10073000FFF7FEBFFFF7FEBFFFF7FEBFFFF7FEBFED
:10074000FFF7FEBFFFF7FEBFFFF7FEBFFFF7FEBFDD
:10075000FFF7FEBFFFF7FEBFFFF7FEBFFFF7FEBFCD
:10076000FFF7FEBFFFF7FEBFFFF7FEBFFFF7FEBFBD
:10077000FFF7FEBFFFF7FEBFFFF7FEBFFFF7FEBFAD
:10078000FFF7FEBFFFF7FEBFFFF7FEBFFFF7FEBF9D
:10079000FFF7FEBFFFF7FEBFFFF7FEBFFFF7FEBF8D
:1007A000FFF7FEBFFFF7FEBFFFF7FEBFFFF7FEBF7D
:1007B000FFF7FEBFFFF7FEBFFFF7FEBFFFF7FEBF6D
:1007C000FFF7FEBFFFF7FEBFFFF7FEBFFFF7FEBF5D
:1007D000FFF7FEBFFFF7FEBFFFF7FEBFFFF7FEBF4D
:1007E000FFF7FEBFFFF7FEBFFFF7FEBFFFF7FEBF3D
:1007F000FFF7FEBFFFF7FEBFFFF7FEBFFFF7FEBF2D
:10080000FFF7FEBFFFF7FEBFFFF7FEBF00000000CF
:1008100001020304010203040607080900000000A6
:040000050800069554
:00000001FF
